{
  "address": "0xD50893A0d47D9033F8677dBb745E36cb3BFf65EE",
  "abi": [
    {
      "inputs": [
        {
          "internalType": "contract IERC721",
          "name": "deliverable",
          "type": "address"
        },
        {
          "internalType": "uint256",
          "name": "denomination",
          "type": "uint256"
        },
        {
          "internalType": "contract UltraVerifier",
          "name": "verifier",
          "type": "address"
        }
      ],
      "stateMutability": "nonpayable",
      "type": "constructor"
    },
    {
      "inputs": [],
      "name": "AlreadyInserted",
      "type": "error"
    },
    {
      "inputs": [],
      "name": "AlreadySpent",
      "type": "error"
    },
    {
      "inputs": [],
      "name": "FieldOverflow",
      "type": "error"
    },
    {
      "inputs": [],
      "name": "FullTree",
      "type": "error"
    },
    {
      "inputs": [],
      "name": "InvalidLevel",
      "type": "error"
    },
    {
      "inputs": [],
      "name": "InvalidRoot",
      "type": "error"
    },
    {
      "inputs": [],
      "name": "InvalidValue",
      "type": "error"
    },
    {
      "anonymous": false,
      "inputs": [
        {
          "indexed": true,
          "internalType": "bytes32",
          "name": "commitment",
          "type": "bytes32"
        },
        {
          "indexed": true,
          "internalType": "uint32",
          "name": "leafIndex",
          "type": "uint32"
        }
      ],
      "name": "Deposit",
      "type": "event"
    },
    {
      "anonymous": false,
      "inputs": [
        {
          "indexed": true,
          "internalType": "address",
          "name": "recipient",
          "type": "address"
        },
        {
          "indexed": true,
          "internalType": "address",
          "name": "relayer",
          "type": "address"
        },
        {
          "indexed": false,
          "internalType": "uint256",
          "name": "fee",
          "type": "uint256"
        },
        {
          "indexed": true,
          "internalType": "bytes32",
          "name": "nullifierHash",
          "type": "bytes32"
        }
      ],
      "name": "Withdraw",
      "type": "event"
    },
    {
      "inputs": [],
      "name": "DELIVERABLE",
      "outputs": [
        {
          "internalType": "contract IERC721",
          "name": "",
          "type": "address"
        }
      ],
      "stateMutability": "view",
      "type": "function"
    },
    {
      "inputs": [],
      "name": "DENOMINATION",
      "outputs": [
        {
          "internalType": "uint256",
          "name": "",
          "type": "uint256"
        }
      ],
      "stateMutability": "view",
      "type": "function"
    },
    {
      "inputs": [],
      "name": "FIELD_SIZE",
      "outputs": [
        {
          "internalType": "uint256",
          "name": "",
          "type": "uint256"
        }
      ],
      "stateMutability": "view",
      "type": "function"
    },
    {
      "inputs": [],
      "name": "LEVELS",
      "outputs": [
        {
          "internalType": "uint256",
          "name": "",
          "type": "uint256"
        }
      ],
      "stateMutability": "view",
      "type": "function"
    },
    {
      "inputs": [],
      "name": "ROOT_HISTORY_SIZE",
      "outputs": [
        {
          "internalType": "uint32",
          "name": "",
          "type": "uint32"
        }
      ],
      "stateMutability": "view",
      "type": "function"
    },
    {
      "inputs": [],
      "name": "VERIFIER",
      "outputs": [
        {
          "internalType": "contract UltraVerifier",
          "name": "",
          "type": "address"
        }
      ],
      "stateMutability": "view",
      "type": "function"
    },
    {
      "inputs": [],
      "name": "ZERO_VALUE",
      "outputs": [
        {
          "internalType": "uint256",
          "name": "",
          "type": "uint256"
        }
      ],
      "stateMutability": "view",
      "type": "function"
    },
    {
      "inputs": [
        {
          "internalType": "bytes32",
          "name": "commitment",
          "type": "bytes32"
        }
      ],
      "name": "commitments",
      "outputs": [
        {
          "internalType": "bool",
          "name": "inserted",
          "type": "bool"
        }
      ],
      "stateMutability": "view",
      "type": "function"
    },
    {
      "inputs": [],
      "name": "currentRootIndex",
      "outputs": [
        {
          "internalType": "uint32",
          "name": "",
          "type": "uint32"
        }
      ],
      "stateMutability": "view",
      "type": "function"
    },
    {
      "inputs": [
        {
          "internalType": "bytes32",
          "name": "commitment",
          "type": "bytes32"
        }
      ],
      "name": "deposit",
      "outputs": [],
      "stateMutability": "payable",
      "type": "function"
    },
    {
      "inputs": [
        {
          "internalType": "uint256",
          "name": "index",
          "type": "uint256"
        }
      ],
      "name": "filledSubtrees",
      "outputs": [
        {
          "internalType": "bytes32",
          "name": "hash",
          "type": "bytes32"
        }
      ],
      "stateMutability": "view",
      "type": "function"
    },
    {
      "inputs": [
        {
          "internalType": "bytes32",
          "name": "root",
          "type": "bytes32"
        }
      ],
      "name": "isKnownRoot",
      "outputs": [
        {
          "internalType": "bool",
          "name": "",
          "type": "bool"
        }
      ],
      "stateMutability": "view",
      "type": "function"
    },
    {
      "inputs": [],
      "name": "lastRoot",
      "outputs": [
        {
          "internalType": "bytes32",
          "name": "",
          "type": "bytes32"
        }
      ],
      "stateMutability": "view",
      "type": "function"
    },
    {
      "inputs": [],
      "name": "nextIndex",
      "outputs": [
        {
          "internalType": "uint32",
          "name": "",
          "type": "uint32"
        }
      ],
      "stateMutability": "view",
      "type": "function"
    },
    {
      "inputs": [
        {
          "internalType": "bytes32",
          "name": "nullifierHash",
          "type": "bytes32"
        }
      ],
      "name": "nullifierHashes",
      "outputs": [
        {
          "internalType": "bool",
          "name": "spent",
          "type": "bool"
        }
      ],
      "stateMutability": "view",
      "type": "function"
    },
    {
      "inputs": [
        {
          "internalType": "uint256",
          "name": "index",
          "type": "uint256"
        }
      ],
      "name": "roots",
      "outputs": [
        {
          "internalType": "bytes32",
          "name": "root",
          "type": "bytes32"
        }
      ],
      "stateMutability": "view",
      "type": "function"
    },
    {
      "inputs": [
        {
          "internalType": "address payable",
          "name": "recipient",
          "type": "address"
        },
        {
          "internalType": "address payable",
          "name": "relayer",
          "type": "address"
        },
        {
          "internalType": "uint256",
          "name": "fee",
          "type": "uint256"
        },
        {
          "internalType": "bytes32",
          "name": "root",
          "type": "bytes32"
        },
        {
          "internalType": "bytes32",
          "name": "nullifierHash",
          "type": "bytes32"
        },
        {
          "internalType": "bytes",
          "name": "proof",
          "type": "bytes"
        }
      ],
      "name": "withdraw",
      "outputs": [],
      "stateMutability": "nonpayable",
      "type": "function"
    },
    {
      "inputs": [
        {
          "internalType": "uint256",
          "name": "i",
          "type": "uint256"
        }
      ],
      "name": "zeros",
      "outputs": [
        {
          "internalType": "bytes32",
          "name": "",
          "type": "bytes32"
        }
      ],
      "stateMutability": "pure",
      "type": "function"
    }
  ],
  "transactionHash": "0x23c8a960ba24289f473ae17b7a7b52a0d70def82b45ef5b82f5e419f864ff7b6",
  "args": [
    "0x10bFbE98b762CE94CbA9D05944979deEa79e0321",
    "10000000000000000",
    "0xd950439b0F111eE26c3156502DbAFF70C6DF1d37"
  ],
  "numDeployments": 1,
  "solcInputHash": "5df6453acedebeb69c9bdbf915d2e34c",
  "bytecode": "0x610100604052600280546001600160401b03191690553480156200002257600080fd5b5060405162005d1e38038062005d1e833981016040819052620000459162000734565b6008608081905260005b8160ff168163ffffffff1610156200009b576200007263ffffffff821662000100565b63ffffffff8216600090815260208190526040902055620000938162000792565b90506200004f565b50620000b6620000ad600183620007b8565b60ff1662000100565b6000805260016020527fa6eef7e35abe7026729641147f7915573c7e97b47efa546f5f6e3230263bcb4955506001600160a01b0392831660a05260c0919091521660e052620007da565b6000816000036200013257507f20b27c6750705c1d7d3d64d3ba12a5bbd8fd2da2c638186f8268efc44fb87f0e919050565b816001036200016257507f1ff9bcd7757de41fd8ccfe79a1423535b3132a80b5193026aefd443a14667ea8919050565b816002036200019257507f06477e81d01a57ad482a3aecfbedd3a84fc713f7a3b500102618b51d3e446b69919050565b81600303620001c257507f2bc3f870f707405f8dcf1a60037680737470570f039258caf6492b5cb1f14042919050565b81600403620001f257507f2a3d4a1d56795d0a8749ae2168af84347df6cdc6b68b9e0ba59ef33de8373b10919050565b816005036200022257507f2d09102b12ab9bb2e4bfb16a12766137f6d92e2366e052fd29fb89394571662c919050565b816006036200025257507f2271b8bcc95bfcc33d82ad6ffc88438a82ad4fa2f0b3831b84c556b059bc80fc919050565b816007036200028257507f1812a5f766e048c28e0b449d322547fde7b6f328554de85c6c417318a9c688f9919050565b81600803620002b257507f26b7d439314c1101ccba00d997ebc316d9ea7f84e6a870f522fc3a7271f8f40f919050565b81600903620002e257507f28670e46e3e68da6783e88ee744148125bae04d5ff1310c297e91e9feac099c7919050565b81600a036200031257507f1456d91c08c49db11a3baa1b5ea2ea2ba9ab4087fcbdc9bfef5ee6c78897d371919050565b81600b036200034257507f05050a34f017642c04435348c44fa8a594b28052d47102534b4fae278e1dd484919050565b81600c036200037257507f1db004f66d9f4dbb2262dff5100127e2094b7967d4f4a727230cc72c4286329a919050565b81600d03620003a257507f0fdce35f1c9aeb4b2f08124c6a7bb378a6a0b06468f7a6e403e43f2cdad5f397919050565b81600e03620003d257507f2d930f785c54791032ed0a23bfc1f935e88c408dd4a1d35692bb00740f441d82919050565b81600f036200040257507f1a9ca3445ff82d31e7f7771a105079e9df4f67cb23615ae0b7081caecbdc5eb3919050565b816010036200043257507f21f3885b2f56b8aa5c4babf2b83076308b4561a9af150adfb62e94fd56baaca0919050565b816011036200046257507f2d07775565fe64cd24a2063d0cdbb8a0314e9e30e11be2fd2edb1e9bac831f2e919050565b816012036200049257507f03559388471591276d58713cd692bb5a3d6939761e72899fe22a0e484a144159919050565b81601303620004c257507f0d820dd92ebac62c9e9a45a9965f2d74952773d95f540ef423fdbf2db15f6f10919050565b81601403620004f257507f013b486fdfe2458cd376ae0c6d93758d0d68497ebb8d2301f261e6ba541eaa2b919050565b816015036200052257507f15f77945b225c1140db94532bb98a6e56c33bfadf1d8de46909949410590bad1919050565b816016036200055257507f0f2b99784ca7f7a0b12026ada700937acc61cdcbd60015b7b98b19b419776fb0919050565b816017036200058257507f125bef9fd271c7e80592f4443d4b8bca4da0e6981030f5edd053cdbc13dd3314919050565b81601803620005b257507f03a5f22e7657928a039bd6879aba619b46ea95b0bfc543b12a69c40f287ca50b919050565b81601903620005e257507f249d1550c266802254391b29f2420d4fd6de26c2852878666030c3ea15f8405f919050565b81601a036200061257507f02d974a7f28a27cb5c84800814eced585ba30e7ceef8cf55da5e3393053376ef919050565b81601b036200064257507f2bcffe57a6de4431e031917a9fe49caa34c3f2ad60f4f61530854b0611a573e9919050565b81601c036200067257507f2408804108b892cef0945f7091026ad757d26662192c2bb6262a4749e1acd105919050565b81601d03620006a257507f01b9687125c34c4b02adbbaea306112bebbd9c0e2f96adcdf50632a0905639e3919050565b81601e03620006d257507f1eacb24c41bbddadfe0feab68a196f4525c1b5512359825680ec527eed62b1a5919050565b81601f036200070257507f246c192ae53614a9a4fcf4dc24f2e198fca7539ae3d779cd592360fc0ea9d479919050565b60405163d1459f7960e01b815260040160405180910390fd5b6001600160a01b03811681146200073157600080fd5b50565b6000806000606084860312156200074a57600080fd5b835162000757816200071b565b60208501516040860151919450925062000771816200071b565b809150509250925092565b634e487b7160e01b600052601160045260246000fd5b600063ffffffff808316818103620007ae57620007ae6200077c565b6001019392505050565b60ff8281168282160390811115620007d457620007d46200077c565b92915050565b60805160a05160c05160e0516154e06200083e600039600081816101200152610669015260008181610231015281816104b20152818161075d01526107b6015260006102f601526000818161036c01528181610ee90152610f3c01526154e06000f3fe6080604052600436106101095760003560e01c8063b58166f211610095578063e2adba8c11610064578063e2adba8c1461035a578063e82955881461038e578063ec732959146103ae578063f178e47c146103e2578063fc7e9c6f1461040f57600080fd5b8063b58166f2146102ba578063bebfd40a146102e4578063c2b40ae414610318578063cd87a3b41461034557600080fd5b8063839df945116100dc578063839df945146101ef5780638b01429d1461021f57806390eeb02b14610253578063aa202ba414610285578063b214faa5146102a757600080fd5b806308c84e701461010e57806317cc915c1461015f578063414a37ba1461019f5780636d9833e3146101cf575b600080fd5b34801561011a57600080fd5b506101427f000000000000000000000000000000000000000000000000000000000000000081565b6040516001600160a01b0390911681526020015b60405180910390f35b34801561016b57600080fd5b5061018f61017a366004615064565b60046020526000908152604090205460ff1681565b6040519015158152602001610156565b3480156101ab57600080fd5b506101c160008051602061544b83398151915281565b604051908152602001610156565b3480156101db57600080fd5b5061018f6101ea366004615064565b610434565b3480156101fb57600080fd5b5061018f61020a366004615064565b60036020526000908152604090205460ff1681565b34801561022b57600080fd5b506101c17f000000000000000000000000000000000000000000000000000000000000000081565b34801561025f57600080fd5b506002546102709063ffffffff1681565b60405163ffffffff9091168152602001610156565b34801561029157600080fd5b506102a56102a0366004615094565b6104b0565b005b6102a56102b5366004615064565b6107b4565b3480156102c657600080fd5b5060025463ffffffff166000908152600160205260409020546101c1565b3480156102f057600080fd5b506101427f000000000000000000000000000000000000000000000000000000000000000081565b34801561032457600080fd5b506101c1610333366004615064565b60016020526000908152604090205481565b34801561035157600080fd5b50610270601e81565b34801561036657600080fd5b506101c17f000000000000000000000000000000000000000000000000000000000000000081565b34801561039a57600080fd5b506101c16103a9366004615064565b610880565b3480156103ba57600080fd5b506101c17f20b27c6750705c1d7d3d64d3ba12a5bbd8fd2da2c638186f8268efc44fb87f0e81565b3480156103ee57600080fd5b506101c16103fd366004615064565b60006020819052908152604090205481565b34801561041b57600080fd5b5060025461027090640100000000900463ffffffff1681565b600081810361044557506000919050565b60025463ffffffff16805b63ffffffff81166000908152600160205260409020548403610476575060019392505050565b8063ffffffff166000036104885750601e5b6104918161515b565b90508163ffffffff168163ffffffff1603610450575060009392505050565b7f00000000000000000000000000000000000000000000000000000000000000008511156104f157604051632a9ffab760e21b815260040160405180910390fd5b60008051602061544b833981519152831061051f57604051636e51c50560e11b815260040160405180910390fd5b60008381526004602052604090205460ff161561054f5760405163d4d9b0fd60e01b815260040160405180910390fd5b61055884610434565b6105755760405163504570e360e01b815260040160405180910390fd5b60408051600580825260c082019092526000916020820160a080368337019050509050876001600160a01b031660001b816000815181106105b8576105b861517b565b602002602001018181525050866001600160a01b031660001b816001815181106105e4576105e461517b565b6020026020010181815250508560001b816002815181106106075761060761517b565b60200260200101818152505084816003815181106106275761062761517b565b60200260200101818152505083816004815181106106475761064761517b565b6020908102919091010152604051633a94343960e21b81526001600160a01b037f0000000000000000000000000000000000000000000000000000000000000000169063ea50d0e4906106a290869086908690600401615191565b602060405180830381865afa1580156106bf573d6000803e3d6000fd5b505050506040513d601f19601f820116820180604052508101906106e3919061520a565b6106ef576106ef615233565b60008481526004602052604090819020805460ff191660011790555184906001600160a01b03808a1691908b16907f6000e90278b62c00aaaf621956141fad63f2be8860557c31de1f736cafae29169061074c908b815260200190565b60405180910390a4610791610781877f0000000000000000000000000000000000000000000000000000000000000000615249565b6001600160a01b038a1690610e80565b85156107aa576107aa6001600160a01b03881687610e80565b5050505050505050565b7f000000000000000000000000000000000000000000000000000000000000000034146107f457604051632a9ffab760e21b815260040160405180910390fd5b60008181526003602052604090205460ff16156108245760405163017bdf3160e41b815260040160405180910390fd5b6000818152600360205260408120805460ff1916600117905561084682610ea0565b90508063ffffffff16827f84fc9eb8cd0a782a1d1734fbeed616bd0ef775f8b9bd437636b62d634fe4baf360405160405180910390a35050565b6000816000036108b157507f20b27c6750705c1d7d3d64d3ba12a5bbd8fd2da2c638186f8268efc44fb87f0e919050565b816001036108e057507f1ff9bcd7757de41fd8ccfe79a1423535b3132a80b5193026aefd443a14667ea8919050565b8160020361090f57507f06477e81d01a57ad482a3aecfbedd3a84fc713f7a3b500102618b51d3e446b69919050565b8160030361093e57507f2bc3f870f707405f8dcf1a60037680737470570f039258caf6492b5cb1f14042919050565b8160040361096d57507f2a3d4a1d56795d0a8749ae2168af84347df6cdc6b68b9e0ba59ef33de8373b10919050565b8160050361099c57507f2d09102b12ab9bb2e4bfb16a12766137f6d92e2366e052fd29fb89394571662c919050565b816006036109cb57507f2271b8bcc95bfcc33d82ad6ffc88438a82ad4fa2f0b3831b84c556b059bc80fc919050565b816007036109fa57507f1812a5f766e048c28e0b449d322547fde7b6f328554de85c6c417318a9c688f9919050565b81600803610a2957507f26b7d439314c1101ccba00d997ebc316d9ea7f84e6a870f522fc3a7271f8f40f919050565b81600903610a5857507f28670e46e3e68da6783e88ee744148125bae04d5ff1310c297e91e9feac099c7919050565b81600a03610a8757507f1456d91c08c49db11a3baa1b5ea2ea2ba9ab4087fcbdc9bfef5ee6c78897d371919050565b81600b03610ab657507f05050a34f017642c04435348c44fa8a594b28052d47102534b4fae278e1dd484919050565b81600c03610ae557507f1db004f66d9f4dbb2262dff5100127e2094b7967d4f4a727230cc72c4286329a919050565b81600d03610b1457507f0fdce35f1c9aeb4b2f08124c6a7bb378a6a0b06468f7a6e403e43f2cdad5f397919050565b81600e03610b4357507f2d930f785c54791032ed0a23bfc1f935e88c408dd4a1d35692bb00740f441d82919050565b81600f03610b7257507f1a9ca3445ff82d31e7f7771a105079e9df4f67cb23615ae0b7081caecbdc5eb3919050565b81601003610ba157507f21f3885b2f56b8aa5c4babf2b83076308b4561a9af150adfb62e94fd56baaca0919050565b81601103610bd057507f2d07775565fe64cd24a2063d0cdbb8a0314e9e30e11be2fd2edb1e9bac831f2e919050565b81601203610bff57507f03559388471591276d58713cd692bb5a3d6939761e72899fe22a0e484a144159919050565b81601303610c2e57507f0d820dd92ebac62c9e9a45a9965f2d74952773d95f540ef423fdbf2db15f6f10919050565b81601403610c5d57507f013b486fdfe2458cd376ae0c6d93758d0d68497ebb8d2301f261e6ba541eaa2b919050565b81601503610c8c57507f15f77945b225c1140db94532bb98a6e56c33bfadf1d8de46909949410590bad1919050565b81601603610cbb57507f0f2b99784ca7f7a0b12026ada700937acc61cdcbd60015b7b98b19b419776fb0919050565b81601703610cea57507f125bef9fd271c7e80592f4443d4b8bca4da0e6981030f5edd053cdbc13dd3314919050565b81601803610d1957507f03a5f22e7657928a039bd6879aba619b46ea95b0bfc543b12a69c40f287ca50b919050565b81601903610d4857507f249d1550c266802254391b29f2420d4fd6de26c2852878666030c3ea15f8405f919050565b81601a03610d7757507f02d974a7f28a27cb5c84800814eced585ba30e7ceef8cf55da5e3393053376ef919050565b81601b03610da657507f2bcffe57a6de4431e031917a9fe49caa34c3f2ad60f4f61530854b0611a573e9919050565b81601c03610dd557507f2408804108b892cef0945f7091026ad757d26662192c2bb6262a4749e1acd105919050565b81601d03610e0457507f01b9687125c34c4b02adbbaea306112bebbd9c0e2f96adcdf50632a0905639e3919050565b81601e03610e3357507f1eacb24c41bbddadfe0feab68a196f4525c1b5512359825680ec527eed62b1a5919050565b81601f03610e6257507f246c192ae53614a9a4fcf4dc24f2e198fca7539ae3d779cd592360fc0ea9d479919050565b60405163d1459f7960e01b815260040160405180910390fd5b919050565b60003860003884865af1610e9c5763b12d13eb6000526004601cfd5b5050565b600060008051602061544b8339815191528210610ed057604051636e51c50560e11b815260040160405180910390fd5b60028054640100000000900463ffffffff1690610f0e907f000000000000000000000000000000000000000000000000000000000000000090615346565b8163ffffffff1603610f33576040516357f6953160e01b815260040160405180910390fd5b8083600080805b7f00000000000000000000000000000000000000000000000000000000000000008163ffffffff161015610ff757610f73600286615352565b63ffffffff16600003610fb157839250610f928163ffffffff16610880565b63ffffffff821660009081526020819052604090208590559150610fcd565b63ffffffff811660009081526020819052604090205492508391505b610fd7838361107c565b935060018563ffffffff16901c945080610ff090615383565b9050610f3a565b50600254600090601e906110129063ffffffff1660016153a6565b61101c9190615352565b6002805463ffffffff191663ffffffff8316179055905061103e8660016153a6565b6002805467ffffffff00000000191664010000000063ffffffff93841602179055166000908152600160205260409020929092555091949350505050565b600060008051602061544b8339815191527f2b90bba00fca0589f617e7dcbfe82e0df706ab640ceb247b791a93b74e36736d7f101071f0032379b697315876690f053d148d4e109f5fb065c8aacc55a0f89bfa7f19a3fc0a56702bf417ba7fee3802593fa644470307043f7773279cd71d25d5e07ef1445235f2148c5986587169fc1bcd887b08d4d00868df5696fff40956e864848806017f08dff3487e8ac99e1f29a058d0fa80b930c728730b7ab36ce879f3890ecf73f58588060185828309868388838409099250868283099050868288838409099150868683098760008051602061540b8339815191528509017f5151bcc773d05d360fc9c923795441a9618605f30e31f2b8f087d1575b9c613b019050868583098760008051602061548b8339815191528509017f547424ff6c2e186923faa2cf5794c8cd2b5d3e8f151620ffda4a15b70cc05b3f0187858409886000805160206153eb8339815191528609017f23dc61092dc247151d38da17703c1ccb157f035575fe333d62fda4d2a5ae1bf5018883800989848b83840909935089838409905089838b83840909925089828309905089828b838409099150898983098a60008051602061540b83398151915285098b60008051602061546b833981519152870901017f28813dcaebaeaa828a376df87af4a63bc8b7bf27ad49c6298ef7b387bf28526d019050898883098a60008051602061548b83398151915285098b6000805160206153cb833981519152870901017f2727673b2ccbc903f181bf38e1c1d40d2033865200c352bc150928adddf9cb78019550898783098a6000805160206153eb83398151915285098b60008051602061542b833981519152870901017f234ec45ca27727c2e74abd2b2a1494cd6efbd43e340587d6b8fb9e31e65cc63201945089818209935089818b86870909905089868709935089868b86870909955089858609935089858b868709099450898986098a60008051602061540b83398151915288098b60008051602061546b833981519152840901017f15b52534031ae18f7f862cb2cf7cf760ab10a8150a337b1ccd99ff6e8797d428019350898886098a60008051602061548b83398151915288098b6000805160206153cb833981519152840901017f0dc8fad6d9e4b35f5ed9a3d186b79ce38e0e8a8d1b58b132d701d4eecf68d1f6019250898786098a6000805160206153eb83398151915288098b60008051602061542b833981519152840901017f1bcd95ffc211fbca600f705fad3fb567ea4eb378f62e1fec97805518a47e4d9c01915089848509905089848b83840909935089838409905089838b83840909925089828309905089828b838409099150898983098a60008051602061540b83398151915285098b60008051602061546b833981519152870901017f10520b0ab721cadfe9eff81b016fc34dc76da36c2578937817cb978d069de559019050898883098a60008051602061548b83398151915285098b6000805160206153cb833981519152870901017f1f6d48149b8e7f7d9b257d8ed5fbbaf42932498075fed0ace88a9eb81f5627f6019550898783098a6000805160206153eb83398151915285098b60008051602061542b833981519152870901017f1d9655f652309014d29e00ef35a2089bfff8dc1c816f0dc9ca34bdb5460c870501945089818209935089818b868709099050898986098a60008051602061540b83398151915288098b60008051602061546b833981519152840901017f04df5a56ff95bcafb051f7b1cd43a99ba731ff67e47032058fe3d4185697cc7d019350898886098a60008051602061548b83398151915288098b6000805160206153cb833981519152840901017f0672d995f8fff640151b3d290cedaf148690a10a8c8424a7f6ec282b6e4be828019250898786098a6000805160206153eb83398151915288098b60008051602061542b833981519152840901017f099952b414884454b21200d7ffafdd5f0c9a9dcc06f2708e9fc1d8209b5c75b901915089848509905089848b838409099350898983098a60008051602061540b83398151915285098b60008051602061546b833981519152870901017f052cba2255dfd00c7c483143ba8d469448e43586a9b4cd9183fd0e843a6b9fa6019050898883098a60008051602061548b83398151915285098b6000805160206153cb833981519152870901017f0b8badee690adb8eb0bd74712b7999af82de55707251ad7716077cb93c464ddc019550898783098a6000805160206153eb83398151915285098b60008051602061542b833981519152870901017f119b1590f13307af5a1ee651020c07c749c15d60683a8050b963d0a8e4b2bdd101945089818209935089818b868709099050898986098a60008051602061540b83398151915288098b60008051602061546b833981519152840901017f03150b7cd6d5d17b2529d36be0f67b832c4acfc884ef4ee5ce15be0bfb4a8d09019350898886098a60008051602061548b83398151915288098b6000805160206153cb833981519152840901017f2cc6182c5e14546e3cf1951f173912355374efb83d80898abe69cb317c9ea565019250898786098a6000805160206153eb83398151915288098b60008051602061542b833981519152840901017e5032551e6378c450cfe129a404b3764218cadedac14e2b92d2cd73111bf0f901915089848509905089848b838409099350898983098a60008051602061540b83398151915285098b60008051602061546b833981519152870901017f233237e3289baa34bb147e972ebcb9516469c399fcc069fb88f9da2cc28276b5019050898883098a60008051602061548b83398151915285098b6000805160206153cb833981519152870901017f05c8f4f4ebd4a6e3c980d31674bfbe6323037f21b34ae5a4e80c2d4c24d60280019550898783098a6000805160206153eb83398151915285098b60008051602061542b833981519152870901017f0a7b1db13042d396ba05d818a319f25252bcf35ef3aeed91ee1f09b2590fc65b01945089818209935089818b868709099050898986098a60008051602061540b83398151915288098b60008051602061546b833981519152840901017f2a73b71f9b210cf5b14296572c9d32dbf156e2b086ff47dc5df542365a404ec0019350898886098a60008051602061548b83398151915288098b6000805160206153cb833981519152840901017f1ac9b0417abcc9a1935107e9ffc91dc3ec18f2c4dbe7f22976a760bb5c50c460019250898786098a6000805160206153eb83398151915288098b60008051602061542b833981519152840901017f12c0339ae08374823fabb076707ef479269f3e4d6cb104349015ee046dc93fc001915089848509905089848b838409099350898983098a60008051602061540b83398151915285098b60008051602061546b833981519152870901017f0b7475b102a165ad7f5b18db4e1e704f52900aa3253baac68246682e56e9a28e019050898883098a60008051602061548b83398151915285098b6000805160206153cb833981519152870901017f037c2849e191ca3edb1c5e49f6e8b8917c843e379366f2ea32ab3aa88d7f8448019550898783098a6000805160206153eb83398151915285098b60008051602061542b833981519152870901017f05a6811f8556f014e92674661e217e9bd5206c5c93a07dc145fdb176a716346f01945089818209935089818b868709099050898986098a60008051602061540b83398151915288098b60008051602061546b833981519152840901017f29a795e7d98028946e947b75d54e9f044076e87a7b2883b47b675ef5f38bd66e019350898886098a60008051602061548b83398151915288098b6000805160206153cb833981519152840901017f20439a0c84b322eb45a3857afc18f5826e8c7382c8a1585c507be199981fd22f019250898786098a6000805160206153eb83398151915288098b60008051602061542b833981519152840901017f2e0ba8d94d9ecf4a94ec2050c7371ff1bb50f27799a84b6d4a2a6f2a0982c88701915089848509905089848b838409099350898983098a60008051602061540b83398151915285098b60008051602061546b833981519152870901017f143fd115ce08fb27ca38eb7cce822b4517822cd2109048d2e6d0ddcca17d71c8019050898883098a60008051602061548b83398151915285098b6000805160206153cb833981519152870901017f0c64cbecb1c734b857968dbbdcf813cdf8611659323dbcbfc84323623be9caf1019550898783098a6000805160206153eb83398151915285098b60008051602061542b833981519152870901017f028a305847c683f646fca925c163ff5ae74f348d62c2b670f1426cef9403da5301945089818209935089818b868709099050898986098a60008051602061540b83398151915288098b60008051602061546b833981519152840901017f2e4ef510ff0b6fda5fa940ab4c4380f26a6bcb64d89427b824d6755b5db9e30c019350898886098a60008051602061548b83398151915288098b6000805160206153cb833981519152840901017e81c95bc43384e663d79270c956ce3b8925b4f6d033b078b96384f50579400e019250898786098a6000805160206153eb83398151915288098b60008051602061542b833981519152840901017f2ed5f0c91cbd9749187e2fade687e05ee2491b349c039a0bba8a9f4023a0bb3801915089848509905089848b838409099350898983098a60008051602061540b83398151915285098b60008051602061546b833981519152870901017f30509991f88da3504bbf374ed5aae2f03448a22c76234c8c990f01f33a735206019050898883098a60008051602061548b83398151915285098b6000805160206153cb833981519152870901017f1c3f20fd55409a53221b7c4d49a356b9f0a1119fb2067b41a7529094424ec6ad019550898783098a6000805160206153eb83398151915285098b60008051602061542b833981519152870901017f10b4e7f3ab5df003049514459b6e18eec46bb2213e8e131e170887b47ddcb96c01945089818209935089818b868709099050898986098a60008051602061540b83398151915288098b60008051602061546b833981519152840901017f2a1982979c3ff7f43ddd543d891c2abddd80f804c077d775039aa3502e43adef019350898886098a60008051602061548b83398151915288098b6000805160206153cb833981519152840901017f1c74ee64f15e1db6feddbead56d6d55dba431ebc396c9af95cad0f1315bd5c91019250898786098a6000805160206153eb83398151915288098b60008051602061542b833981519152840901017f07533ec850ba7f98eab9303cace01b4b9e4f2e8b82708cfa9c2fe45a0ae146a001915089848509905089848b838409099350898983098a60008051602061540b83398151915285098b60008051602061546b833981519152870901017f21576b438e500449a151e4eeaf17b154285c68f42d42c1808a11abf3764c0750019050898883098a60008051602061548b83398151915285098b6000805160206153cb833981519152870901017f2f17c0559b8fe79608ad5ca193d62f10bce8384c815f0906743d6930836d4a9e019550898783098a6000805160206153eb83398151915285098b60008051602061542b833981519152870901017f2d477e3862d07708a79e8aae946170bc9775a4201318474ae665b0b1b7e2730e01945089818209935089818b868709099050898986098a60008051602061540b83398151915288098b60008051602061546b833981519152840901017f162f5243967064c390e095577984f291afba2266c38f5abcd89be0f5b2747eab019350898886098a60008051602061548b83398151915288098b6000805160206153cb833981519152840901017f2b4cb233ede9ba48264ecd2c8ae50d1ad7a8596a87f29f8a7777a70092393311019250898786098a6000805160206153eb83398151915288098b60008051602061542b833981519152840901017f2c8fbcb2dd8573dc1dbaf8f4622854776db2eece6d85c4cf4254e7c35e03b07a01915089848509905089848b838409099350898983098a60008051602061540b83398151915285098b60008051602061546b833981519152870901017f1d6f347725e4816af2ff453f0cd56b199e1b61e9f601e9ade5e88db870949da9019050898883098a60008051602061548b83398151915285098b6000805160206153cb833981519152870901017f204b0c397f4ebe71ebc2d8b3df5b913df9e6ac02b68d31324cd49af5c4565529019550898783098a6000805160206153eb83398151915285098b60008051602061542b833981519152870901017f0c4cb9dc3c4fd8174f1149b3c63c3c2f9ecb827cd7dc25534ff8fb75bc79c50201945089818209935089818b868709099050898986098a60008051602061540b83398151915288098b60008051602061546b833981519152840901017f174ad61a1448c899a25416474f4930301e5c49475279e0639a616ddc45bc7b54019350898886098a60008051602061548b83398151915288098b6000805160206153cb833981519152840901017f1a96177bcf4d8d89f759df4ec2f3cde2eaaa28c177cc0fa13a9816d49a38d2ef019250898786098a6000805160206153eb83398151915288098b60008051602061542b833981519152840901017f066d04b24331d71cd0ef8054bc60c4ff05202c126a233c1a8242ace360b8a30a01915089848509905089848b838409099350898983098a60008051602061540b83398151915285098b60008051602061546b833981519152870901017f2a4c4fc6ec0b0cf52195782871c6dd3b381cc65f72e02ad527037a62aa1bd804019050898883098a60008051602061548b83398151915285098b6000805160206153cb833981519152870901017f13ab2d136ccf37d447e9f2e14a7cedc95e727f8446f6d9d7e55afc01219fd649019550898783098a6000805160206153eb83398151915285098b60008051602061542b833981519152870901017f1121552fca26061619d24d843dc82769c1b04fcec26f55194c2e3e869acc6a9a01945089818209935089818b868709099050898986098a60008051602061540b83398151915288098b60008051602061546b833981519152840901017eef653322b13d6c889bc81715c37d77a6cd267d595c4a8909a5546c7c97cff1019350898886098a60008051602061548b83398151915288098b6000805160206153cb833981519152840901017f0e25483e45a665208b261d8ba74051e6400c776d652595d9845aca35d8a397d3019250898786098a6000805160206153eb83398151915288098b60008051602061542b833981519152840901017f29f536dcb9dd7682245264659e15d88e395ac3d4dde92d8c46448db979eeba8901915089848509905089848b838409099350898983098a60008051602061540b83398151915285098b60008051602061546b833981519152870901017f2a56ef9f2c53febadfda33575dbdbd885a124e2780bbea170e456baace0fa5be019050898883098a60008051602061548b83398151915285098b6000805160206153cb833981519152870901017f1c8361c78eb5cf5decfb7a2d17b5c409f2ae2999a46762e8ee416240a8cb9af1019550898783098a6000805160206153eb83398151915285098b60008051602061542b833981519152870901017f151aff5f38b20a0fc0473089aaf0206b83e8e68a764507bfd3d0ab4be74319c501945089818209935089818b868709099050898986098a60008051602061540b83398151915288098b60008051602061546b833981519152840901017f04c6187e41ed881dc1b239c88f7f9d43a9f52fc8c8b6cdd1e76e47615b51f100019350898886098a60008051602061548b83398151915288098b6000805160206153cb833981519152840901017f13b37bd80f4d27fb10d84331f6fb6d534b81c61ed15776449e801b7ddc9c2967019250898786098a6000805160206153eb83398151915288098b60008051602061542b833981519152840901017f01a5c536273c2d9df578bfbd32c17b7a2ce3664c2a52032c9321ceb1c4e8a8e401915089848509905089848b838409099350898983098a60008051602061540b83398151915285098b60008051602061546b833981519152870901017f2ab3561834ca73835ad05f5d7acb950b4a9a2c666b9726da832239065b7c3b02019050898883098a60008051602061548b83398151915285098b6000805160206153cb833981519152870901017f1d4d8ec291e720db200fe6d686c0d613acaf6af4e95d3bf69f7ed516a597b646019550898783098a6000805160206153eb83398151915285098b60008051602061542b833981519152870901017f041294d2cc484d228f5784fe7919fd2bb925351240a04b711514c9c80b65af1d01945089818209935089818b868709099050898986098a60008051602061540b83398151915288098b60008051602061546b833981519152840901017f154ac98e01708c611c4fa715991f004898f57939d126e392042971dd90e81fc6019350898886098a60008051602061548b83398151915288098b6000805160206153cb833981519152840901017f0b339d8acca7d4f83eedd84093aef51050b3684c88f8b0b04524563bc6ea4da4019250898786098a6000805160206153eb83398151915288098b60008051602061542b833981519152840901017f0955e49e6610c94254a4f84cfbab344598f0e71eaff4a7dd81ed95b50839c82e01915089848509905089848b838409099350898983098a60008051602061540b83398151915285098b60008051602061546b833981519152870901017f06746a6156eba54426b9e22206f15abca9a6f41e6f535c6f3525401ea0654626019050898883098a60008051602061548b83398151915285098b6000805160206153cb833981519152870901017f0f18f5a0ecd1423c496f3820c549c27838e5790e2bd0a196ac917c7ff32077fb019550898783098a6000805160206153eb83398151915285098b60008051602061542b833981519152870901017f04f6eeca1751f7308ac59eff5beb261e4bb563583ede7bc92a738223d6f76e1301945089818209935089818b868709099050898986098a60008051602061540b83398151915288098b60008051602061546b833981519152840901017f2b56973364c4c4f5c1a3ec4da3cdce038811eb116fb3e45bc1768d26fc0b3758019350898886098a60008051602061548b83398151915288098b6000805160206153cb833981519152840901017f123769dd49d5b054dcd76b89804b1bcb8e1392b385716a5d83feb65d437f29ef019250898786098a6000805160206153eb83398151915288098b60008051602061542b833981519152840901017f2147b424fc48c80a88ee52b91169aacea989f6446471150994257b2fb01c63e901915089848509905089848b838409099350898983098a60008051602061540b83398151915285098b60008051602061546b833981519152870901017f0fdc1f58548b85701a6c5505ea332a29647e6f34ad4243c2ea54ad897cebe54d019050898883098a60008051602061548b83398151915285098b6000805160206153cb833981519152870901017f12373a8251fea004df68abcf0f7786d4bceff28c5dbbe0c3944f685cc0a0b1f2019550898783098a6000805160206153eb83398151915285098b60008051602061542b833981519152870901017f21e4f4ea5f35f85bad7ea52ff742c9e8a642756b6af44203dd8a1f35c1a9003501945089818209935089818b868709099050898986098a60008051602061540b83398151915288098b60008051602061546b833981519152840901017f16243916d69d2ca3dfb4722224d4c462b57366492f45e90d8a81934f1bc3b147019350898886098a60008051602061548b83398151915288098b6000805160206153cb833981519152840901017f1efbe46dd7a578b4f66f9adbc88b4378abc21566e1a0453ca13a4159cac04ac2019250898786098a6000805160206153eb83398151915288098b60008051602061542b833981519152840901017f07ea5e8537cf5dd08886020e23a7f387d468d5525be66f853b672cc96a88969a01915089848509905089848b838409099350898983098a60008051602061540b83398151915285098b60008051602061546b833981519152870901017f05a8c4f9968b8aa3b7b478a30f9a5b63650f19a75e7ce11ca9fe16c0b76c00bc019050898883098a60008051602061548b83398151915285098b6000805160206153cb833981519152870901017f20f057712cc21654fbfe59bd345e8dac3f7818c701b9c7882d9d57b72a32e83f019550898783098a6000805160206153eb83398151915285098b60008051602061542b833981519152870901017f04a12ededa9dfd689672f8c67fee31636dcd8e88d01d49019bd90b33eb33db6901945089818209935089818b868709099050898986098a60008051602061540b83398151915288098b60008051602061546b833981519152840901017f27e88d8c15f37dcee44f1e5425a51decbd136ce5091a6767e49ec9544ccd101a019350898886098a60008051602061548b83398151915288098b6000805160206153cb833981519152840901017f2feed17b84285ed9b8a5c8c5e95a41f66e096619a7703223176c41ee433de4d1019250898786098a6000805160206153eb83398151915288098b60008051602061542b833981519152840901017f1ed7cc76edf45c7c404241420f729cf394e5942911312a0d6972b8bd53aff2b801915089848509905089848b838409099350898983098a60008051602061540b83398151915285098b60008051602061546b833981519152870901017f15742e99b9bfa323157ff8c586f5660eac6783476144cdcadf2874be45466b1a019050898883098a60008051602061548b83398151915285098b6000805160206153cb833981519152870901017f1aac285387f65e82c895fc6887ddf40577107454c6ec0317284f033f27d0c785019550898783098a6000805160206153eb83398151915285098b60008051602061542b833981519152870901017f25851c3c845d4790f9ddadbdb6057357832e2e7a49775f71ec75a96554d67c7701945089818209935089818b868709099050898986098a60008051602061540b83398151915288098b60008051602061546b833981519152840901017f15a5821565cc2ec2ce78457db197edf353b7ebba2c5523370ddccc3d9f146a67019350898886098a60008051602061548b83398151915288098b6000805160206153cb833981519152840901017f2411d57a4813b9980efa7e31a1db5966dcf64f36044277502f15485f28c71727019250898786098a6000805160206153eb83398151915288098b60008051602061542b833981519152840901017e2e6f8d6520cd4713e335b8c0b6d2e647e9a98e12f4cd2558828b5ef6cb4c9b01915089848509905089848b838409099350898983098a60008051602061540b83398151915285098b60008051602061546b833981519152870901017f2ff7bc8f4380cde997da00b616b0fcd1af8f0e91e2fe1ed7398834609e0315d2019050898883098a60008051602061548b83398151915285098b6000805160206153cb833981519152870901017eb9831b948525595ee02724471bcd182e9521f6b7bb68f1e93be4febb0d3cbe019550898783098a6000805160206153eb83398151915285098b60008051602061542b833981519152870901017f0a2f53768b8ebf6a86913b0e57c04e011ca408648a4743a87d77adbf0c9c351201945089818209935089818b868709099050898986098a60008051602061540b83398151915288098b60008051602061546b833981519152840901017e248156142fd0373a479f91ff239e960f599ff7e94be69b7f2a290305e1198d019350898886098a60008051602061548b83398151915288098b6000805160206153cb833981519152840901017f171d5620b87bfb1328cf8c02ab3f0c9a397196aa6a542c2350eb512a2b2bcda9019250898786098a6000805160206153eb83398151915288098b60008051602061542b833981519152840901017f170a4f55536f7dc970087c7c10d6fad760c952172dd54dd99d1045e4ec34a80801915089848509905089848b838409099350898983098a60008051602061540b83398151915285098b60008051602061546b833981519152870901017f29aba33f799fe66c2ef3134aea04336ecc37e38c1cd211ba482eca17e2dbfae1019050898883098a60008051602061548b83398151915285098b6000805160206153cb833981519152870901017f1e9bc179a4fdd758fdd1bb1945088d47e70d114a03f6a0e8b5ba650369e64973019550898783098a6000805160206153eb83398151915285098b60008051602061542b833981519152870901017f1dd269799b660fad58f7f4892dfb0b5afeaad869a9c4b44f9c9e1c43bdaf8f0901945089818209935089818b868709099050898986098a60008051602061540b83398151915288098b60008051602061546b833981519152840901017f22cdbc8b70117ad1401181d02e15459e7ccd426fe869c7c95d1dd2cb0f24af38019350898886098a60008051602061548b83398151915288098b6000805160206153cb833981519152840901017f0ef042e454771c533a9f57a55c503fcefd3150f52ed94a7cd5ba93b9c7dacefd019250898786098a6000805160206153eb83398151915288098b60008051602061542b833981519152840901017f11609e06ad6c8fe2f287f3036037e8851318e8b08a0359a03b304ffca62e828401915089848509905089848b838409099350898983098a60008051602061540b83398151915285098b60008051602061546b833981519152870901017f1166d9e554616dba9e753eea427c17b7fecd58c076dfe42708b08f5b783aa9af019050898883098a60008051602061548b83398151915285098b6000805160206153cb833981519152870901017f2de52989431a859593413026354413db177fbf4cd2ac0b56f855a888357ee466019550898783098a6000805160206153eb83398151915285098b60008051602061542b833981519152870901017f3006eb4ffc7a85819a6da492f3a8ac1df51aee5b17b8e89d74bf01cf5f71e9ad01945089818209935089818b868709099050898986098a60008051602061540b83398151915288098b60008051602061546b833981519152840901017f2af41fbb61ba8a80fdcf6fff9e3f6f422993fe8f0a4639f962344c8225145086019350898886098a60008051602061548b83398151915288098b6000805160206153cb833981519152840901017f119e684de476155fe5a6b41a8ebc85db8718ab27889e85e781b214bace4827c3019250898786098a6000805160206153eb83398151915288098b60008051602061542b833981519152840901017f1835b786e2e8925e188bea59ae363537b51248c23828f047cff784b97b3fd80001915089848509905089848b838409099350898983098a60008051602061540b83398151915285098b60008051602061546b833981519152870901017f28201a34c594dfa34d794996c6433a20d152bac2a7905c926c40e285ab32eeb6019050898883098a60008051602061548b83398151915285098b6000805160206153cb833981519152870901017f083efd7a27d1751094e80fefaf78b000864c82eb571187724a761f88c22cc4e7019550898783098a6000805160206153eb83398151915285098b60008051602061542b833981519152870901017f0b6f88a3577199526158e61ceea27be811c16df7774dd8519e079564f61fd13b01945089818209935089818b868709099050898986098a60008051602061540b83398151915288098b60008051602061546b833981519152840901017f0ec868e6d15e51d9644f66e1d6471a94589511ca00d29e1014390e6ee4254f5b019350898886098a60008051602061548b83398151915288098b6000805160206153cb833981519152840901017f2af33e3f866771271ac0c9b3ed2e1142ecd3e74b939cd40d00d937ab84c98591019250898786098a6000805160206153eb83398151915288098b60008051602061542b833981519152840901017f0b520211f904b5e7d09b5d961c6ace7734568c547dd6858b364ce5e47951f17801915089848509905089848b838409099350898983098a60008051602061540b83398151915285098b60008051602061546b833981519152870901017f0b2d722d0919a1aad8db58f10062a92ea0c56ac4270e822cca228620188a1d40019050898883098a60008051602061548b83398151915285098b6000805160206153cb833981519152870901017f1f790d4d7f8cf094d980ceb37c2453e957b54a9991ca38bbe0061d1ed6e562d4019550898783098a6000805160206153eb83398151915285098b60008051602061542b833981519152870901017f0171eb95dfbf7d1eaea97cd385f780150885c16235a2a6a8da92ceb01e50423301945089818209935089818b868709099050898986098a60008051602061540b83398151915288098b60008051602061546b833981519152840901017f0c2d0e3b5fd57549329bf6885da66b9b790b40defd2c8650762305381b168873019350898886098a60008051602061548b83398151915288098b6000805160206153cb833981519152840901017f1162fb28689c27154e5a8228b4e72b377cbcafa589e283c35d3803054407a18d019250898786098a6000805160206153eb83398151915288098b60008051602061542b833981519152840901017f2f1459b65dee441b64ad386a91e8310f282c5a92a89e19921623ef8249711bc001915089848509905089848b838409099350898983098a60008051602061540b83398151915285098b60008051602061546b833981519152870901017f1e6ff3216b688c3d996d74367d5cd4c1bc489d46754eb712c243f70d1b53cfbb019050898883098a60008051602061548b83398151915285098b6000805160206153cb833981519152870901017f01ca8be73832b8d0681487d27d157802d741a6f36cdc2a0576881f9326478875019550898783098a6000805160206153eb83398151915285098b60008051602061542b833981519152870901017f1f7735706ffe9fc586f976d5bdf223dc680286080b10cea00b9b5de315f9650e01945089818209935089818b868709099050898986098a60008051602061540b83398151915288098b60008051602061546b833981519152840901017f2522b60f4ea3307640a0c2dce041fba921ac10a3d5f096ef4745ca838285f019019350898886098a60008051602061548b83398151915288098b6000805160206153cb833981519152840901017f23f0bee001b1029d5255075ddc957f833418cad4f52b6c3f8ce16c235572575b019250898786098a6000805160206153eb83398151915288098b60008051602061542b833981519152840901017f2bc1ae8b8ddbb81fcaac2d44555ed5685d142633e9df905f66d9401093082d5901915089848509905089848b838409099350898983098a60008051602061540b83398151915285098b60008051602061546b833981519152870901017f0f9406b8296564a37304507b8dba3ed162371273a07b1fc98011fcd6ad72205f019050898883098a60008051602061548b83398151915285098b6000805160206153cb833981519152870901017f2360a8eb0cc7defa67b72998de90714e17e75b174a52ee4acb126c8cd995f0a8019550898783098a6000805160206153eb83398151915285098b60008051602061542b833981519152870901017f15871a5cddead976804c803cbaef255eb4815a5e96df8b006dcbbc2767f8894801945089818209935089818b868709099050898986098a60008051602061540b83398151915288098b60008051602061546b833981519152840901017f193a56766998ee9e0a8652dd2f3b1da0362f4f54f72379544f957ccdeefb420f019350898886098a60008051602061548b83398151915288098b6000805160206153cb833981519152840901017f2a394a43934f86982f9be56ff4fab1703b2e63c8ad334834e4309805e777ae0f019250898786098a6000805160206153eb83398151915288098b60008051602061542b833981519152840901017f1859954cfeb8695f3e8b635dcb345192892cd11223443ba7b4166e8876c0d14201915089848509905089848b838409099350898983098a60008051602061540b83398151915285098b60008051602061546b833981519152870901017f04e1181763050e58013444dbcb99f1902b11bc25d90bbdca408d3819f4fed32b019050898883098a60008051602061548b83398151915285098b6000805160206153cb833981519152870901017f0fdb253dee83869d40c335ea64de8c5bb10eb82db08b5e8b1f5e5552bfd05f23019550898783098a6000805160206153eb83398151915285098b60008051602061542b833981519152870901017f058cbe8a9a5027bdaa4efb623adead6275f08686f1c08984a9d7c5bae9b4f1c001945089818209935089818b868709099050898986098a60008051602061540b83398151915288098b60008051602061546b833981519152840901017f1382edce9971e186497eadb1aeb1f52b23b4b83bef023ab0d15228b4cceca59a019350898886098a60008051602061548b83398151915288098b6000805160206153cb833981519152840901017f03464990f045c6ee0819ca51fd11b0be7f61b8eb99f14b77e1e6634601d9e8b5019250898786098a6000805160206153eb83398151915288098b60008051602061542b833981519152840901017f23f7bfc8720dc296fff33b41f98ff83c6fcab4605db2eb5aaa5bc137aeb70a5801915089848509905089848b838409099350898983098a60008051602061540b83398151915285098b60008051602061546b833981519152870901017f0a59a158e3eec2117e6e94e7f0e9decf18c3ffd5e1531a9219636158bbaf62f2019050898883098a60008051602061548b83398151915285098b6000805160206153cb833981519152870901017f06ec54c80381c052b58bf23b312ffd3ce2c4eba065420af8f4c23ed0075fd07b019550898783098a6000805160206153eb83398151915285098b60008051602061542b833981519152870901017f118872dc832e0eb5476b56648e867ec8b09340f7a7bcb1b4962f0ff9ed1f9d0101945089818209935089818b868709099050898986098a60008051602061540b83398151915288098b60008051602061546b833981519152840901017f13d69fa127d834165ad5c7cba7ad59ed52e0b0f0e42d7fea95e1906b520921b1019350898886098a60008051602061548b83398151915288098b6000805160206153cb833981519152840901017f169a177f63ea681270b1c6877a73d21bde143942fb71dc55fd8a49f19f10c77b019250898786098a6000805160206153eb83398151915288098b60008051602061542b833981519152840901017f04ef51591c6ead97ef42f287adce40d93abeb032b922f66ffb7e9a5a7450544d01915089848509905089848b838409099350898983098a60008051602061540b83398151915285098b60008051602061546b833981519152870901017f256e175a1dc079390ecd7ca703fb2e3b19ec61805d4f03ced5f45ee6dd0f69ec019050898883098a60008051602061548b83398151915285098b6000805160206153cb833981519152870901017f30102d28636abd5fe5f2af412ff6004f75cc360d3205dd2da002813d3e2ceeb2019550898783098a6000805160206153eb83398151915285098b60008051602061542b833981519152870901017f10998e42dfcd3bbf1c0714bc73eb1bf40443a3fa99bef4a31fd31be182fcc79201945089818209935089818b868709099050898986098a60008051602061540b83398151915288098b60008051602061546b833981519152840901017f193edd8e9fcf3d7625fa7d24b598a1d89f3362eaf4d582efecad76f879e36860019350898886098a60008051602061548b83398151915288098b6000805160206153cb833981519152840901017f18168afd34f2d915d0368ce80b7b3347d1c7a561ce611425f2664d7aa51f0b5d019250898786098a6000805160206153eb83398151915288098b60008051602061542b833981519152840901017f29383c01ebd3b6ab0c017656ebe658b6a328ec77bc33626e29e2e95b33ea611101915089848509905089848b838409099350898983098a60008051602061540b83398151915285098b60008051602061546b833981519152870901017f10646d2f2603de39a1f4ae5e7771a64a702db6e86fb76ab600bf573f9010c711019050898883098a60008051602061548b83398151915285098b6000805160206153cb833981519152870901017f0beb5e07d1b27145f575f1395a55bf132f90c25b40da7b3864d0242dcb1117fb019550898783098a6000805160206153eb83398151915285098b60008051602061542b833981519152870901017f16d685252078c133dc0d3ecad62b5c8830f95bb2e54b59abdffbf018d96fa33601945089818209935089818b868709099050898986098a60008051602061540b83398151915288098b60008051602061546b833981519152840901017f0a6abd1d833938f33c74154e0404b4b40a555bbbec21ddfafd672dd62047f01a019350898886098a60008051602061548b83398151915288098b6000805160206153cb833981519152840901017f1a679f5d36eb7b5c8ea12a4c2dedc8feb12dffeec450317270a6f19b34cf1860019250898786098a6000805160206153eb83398151915288098b60008051602061542b833981519152840901017f0980fb233bd456c23974d50e0ebfde4726a423eada4e8f6ffbc7592e3f1b93d601915089848509905089848b838409099350898983098a60008051602061540b83398151915285098b60008051602061546b833981519152870901017f161b42232e61b84cbf1810af93a38fc0cece3d5628c9282003ebacb5c312c72b019050898883098a60008051602061548b83398151915285098b6000805160206153cb833981519152870901017f0ada10a90c7f0520950f7d47a60d5e6a493f09787f1564e5d09203db47de1a0b019550898783098a6000805160206153eb83398151915285098b60008051602061542b833981519152870901017f1a730d372310ba82320345a29ac4238ed3f07a8a2b4e121bb50ddb9af407f45101945089818209935089818b868709099050898986098a60008051602061540b83398151915288098b60008051602061546b833981519152840901017f2c8120f268ef054f817064c369dda7ea908377feaba5c4dffbda10ef58e8c556019350898886098a60008051602061548b83398151915288098b6000805160206153cb833981519152840901017f1c7c8824f758753fa57c00789c684217b930e95313bcb73e6e7b8649a4968f70019250898786098a6000805160206153eb83398151915288098b60008051602061542b833981519152840901017f2cd9ed31f5f8691c8e39e4077a74faa0f400ad8b491eb3f7b47b27fa3fd1cf7701915089848509905089848b838409099350898983098a60008051602061540b83398151915285098b60008051602061546b833981519152870901017f23ff4f9d46813457cf60d92f57618399a5e022ac321ca550854ae23918a22eea019050898883098a60008051602061548b83398151915285098b6000805160206153cb833981519152870901017f09945a5d147a4f66ceece6405dddd9d0af5a2c5103529407dff1ea58f180426d019550898783098a6000805160206153eb83398151915285098b60008051602061542b833981519152870901017f188d9c528025d4c2b67660c6b771b90f7c7da6eaa29d3f268a6dd223ec6fc63001945089818209935089818b868709099050898986098a60008051602061540b83398151915288098b60008051602061546b833981519152840901017f3050e37996596b7f81f68311431d8734dba7d926d3633595e0c0d8ddf4f0f47f019350898886098a60008051602061548b83398151915288098b6000805160206153cb833981519152840901017f15af1169396830a91600ca8102c35c426ceae5461e3f95d89d829518d30afd78019250898786098a6000805160206153eb83398151915288098b60008051602061542b833981519152840901017f1da6d09885432ea9a06d9f37f873d985dae933e351466b2904284da3320d8acc01915089848509905089848b838409099350898983098a60008051602061540b83398151915285098b60008051602061546b833981519152870901017f2796ea90d269af29f5f8acf33921124e4e4fad3dbe658945e546ee411ddaa9cb019050898883098a60008051602061548b83398151915285098b6000805160206153cb833981519152870901017f202d7dd1da0f6b4b0325c8b3307742f01e15612ec8e9304a7cb0319e01d32d60019550898783098a6000805160206153eb83398151915285098b60008051602061542b833981519152870901017f096d6790d05bb759156a952ba263d672a2d7f9c788f4c831a29dace4c0f8be5f01945089818209935089818b868709099050898986098a60008051602061540b83398151915288098b60008051602061546b833981519152840901017f054efa1f65b0fce283808965275d877b438da23ce5b13e1963798cb1447d25a4019350898886098a60008051602061548b83398151915288098b6000805160206153cb833981519152840901017f1b162f83d917e93edb3308c29802deb9d8aa690113b2e14864ccf6e18e4165f1019250898786098a6000805160206153eb83398151915288098b60008051602061542b833981519152840901017f21e5241e12564dd6fd9f1cdd2a0de39eedfefc1466cc568ec5ceb745a0506edc01915089848509905089848b83840909935089838409905089838b83840909925089828309905089828b838409099150898983098a60008051602061540b83398151915285098b60008051602061546b833981519152870901017f1cfb5662e8cf5ac9226a80ee17b36abecb73ab5f87e161927b4349e10e4bdf08019050898883098a60008051602061548b83398151915285098b6000805160206153cb833981519152870901017f0f21177e302a771bbae6d8d1ecb373b62c99af346220ac0129c53f666eb24100019550898783098a6000805160206153eb83398151915285098b60008051602061542b833981519152870901017f1671522374606992affb0dd7f71b12bec4236aede6290546bcef7e1f515c232001945089818209935089818b86870909905089868709935089868b86870909955089858609935089858b868709099450898986098a60008051602061540b83398151915288098b60008051602061546b833981519152840901017f0fa3ec5b9488259c2eb4cf24501bfad9be2ec9e42c5cc8ccd419d2a692cad870019350898886098a60008051602061548b83398151915288098b6000805160206153cb833981519152840901017f193c0e04e0bd298357cb266c1506080ed36edce85c648cc085e8c57b1ab54bba019250898786098a6000805160206153eb83398151915288098b60008051602061542b833981519152840901017f102adf8ef74735a27e9128306dcbc3c99f6f7291cd406578ce14ea2adaba68f801915089848509905089848b83840909935089838409905089838b83840909925089828309905089828b838409099150898983098a60008051602061540b83398151915285098b60008051602061546b833981519152870901017f0fe0af7858e49859e2a54d6f1ad945b1316aa24bfbdd23ae40a6d0cb70c3eab1019050898883098a60008051602061548b83398151915285098b6000805160206153cb833981519152870901017f216f6717bbc7dedb08536a2220843f4e2da5f1daa9ebdefde8a5ea7344798d22019550898783098a6000805160206153eb83398151915285098b60008051602061542b833981519152870901017f1da55cc900f0d21f4a3e694391918a1b3c23b2ac773c6b3ef88e2e422832516101945089818209935089818b86870909905089868709935089868b86870909955089858609935089858b868709099450898a8a87098b60008051602061540b83398151915289098c60008051602061546b833981519152850901010660008190529d9c50505050505050505050505050565b60006020828403121561507657600080fd5b5035919050565b80356001600160a01b0381168114610e7b57600080fd5b600080600080600080600060c0888a0312156150af57600080fd5b6150b88861507d565b96506150c66020890161507d565b955060408801359450606088013593506080880135925060a088013567ffffffffffffffff808211156150f857600080fd5b818a0191508a601f83011261510c57600080fd5b81358181111561511b57600080fd5b8b602082850101111561512d57600080fd5b60208301945080935050505092959891949750929550565b634e487b7160e01b600052601160045260246000fd5b600063ffffffff82168061517157615171615145565b6000190192915050565b634e487b7160e01b600052603260045260246000fd5b60408152826040820152828460608301376000606084830101526000601f19601f8501168201606081016020606085840301818601528186518084526080850191508288019450600093505b808410156151fd57845182529382019360019390930192908201906151dd565b5098975050505050505050565b60006020828403121561521c57600080fd5b8151801515811461522c57600080fd5b9392505050565b634e487b7160e01b600052600160045260246000fd5b8181038181111561525c5761525c615145565b92915050565b600181815b8085111561529d57816000190482111561528357615283615145565b8085161561529057918102915b93841c9390800290615267565b509250929050565b6000826152b45750600161525c565b816152c15750600061525c565b81600181146152d757600281146152e1576152fd565b600191505061525c565b60ff8411156152f2576152f2615145565b50506001821b61525c565b5060208310610133831016604e8410600b8410161715615320575081810a61525c565b61532a8383615262565b806000190482111561533e5761533e615145565b029392505050565b600061522c83836152a5565b600063ffffffff8084168061537757634e487b7160e01b600052601260045260246000fd5b92169190910692915050565b600063ffffffff80831681810361539c5761539c615145565b6001019392505050565b63ffffffff8181168382160190808211156153c3576153c3615145565b509291505056fe2969f27eed31a480b9c36c764379dbca2cc8fdd1415c3dded62940bcde0bd771176cc029695ad02582a70eff08a6fd99d057e12e58e7d7b6b16cdfabc8ee291116ed41e13bb9c0c66ae119424fddbcbc9314dc9fdbdeea55d6c64543dc4903e0143021ec686a3f330d5f9e654638065ce6cd79e28c5b3753326244ee65a1b1a730644e72e131a029b85045b68181585d2833e84879b9709143e1f593f0000001109b7f411ba0e4c9b2b70caf5c36a7b194be7c11ad24378bfedb68592ba8118b2e2419f9ec02ec394c9871c832963dc1b89d743c8c7b964029b2311687b1fe23a2646970667358221220bf3aa3d4fcbbe31a0c44bc0c0f4c9d21693c9d02dbc16046f6c0d41f4aa1b80964736f6c63430008150033",
  "devdoc": {
    "kind": "dev",
    "methods": {},
    "version": 1
  },
  "userdoc": {
    "kind": "user",
    "methods": {},
    "version": 1
  },
  "storageLayout": {
    "storage": [
      {
        "astId": 969,
        "contract": "contracts/Receba.sol:Receba",
        "label": "filledSubtrees",
        "offset": 0,
        "slot": "0",
        "type": "t_mapping(t_uint256,t_bytes32)"
      },
      {
        "astId": 973,
        "contract": "contracts/Receba.sol:Receba",
        "label": "roots",
        "offset": 0,
        "slot": "1",
        "type": "t_mapping(t_uint256,t_bytes32)"
      },
      {
        "astId": 976,
        "contract": "contracts/Receba.sol:Receba",
        "label": "currentRootIndex",
        "offset": 0,
        "slot": "2",
        "type": "t_uint32"
      },
      {
        "astId": 979,
        "contract": "contracts/Receba.sol:Receba",
        "label": "nextIndex",
        "offset": 4,
        "slot": "2",
        "type": "t_uint32"
      },
      {
        "astId": 1485,
        "contract": "contracts/Receba.sol:Receba",
        "label": "commitments",
        "offset": 0,
        "slot": "3",
        "type": "t_mapping(t_bytes32,t_bool)"
      },
      {
        "astId": 1489,
        "contract": "contracts/Receba.sol:Receba",
        "label": "nullifierHashes",
        "offset": 0,
        "slot": "4",
        "type": "t_mapping(t_bytes32,t_bool)"
      }
    ],
    "types": {
      "t_bool": {
        "encoding": "inplace",
        "label": "bool",
        "numberOfBytes": "1"
      },
      "t_bytes32": {
        "encoding": "inplace",
        "label": "bytes32",
        "numberOfBytes": "32"
      },
      "t_mapping(t_bytes32,t_bool)": {
        "encoding": "mapping",
        "key": "t_bytes32",
        "label": "mapping(bytes32 => bool)",
        "numberOfBytes": "32",
        "value": "t_bool"
      },
      "t_mapping(t_uint256,t_bytes32)": {
        "encoding": "mapping",
        "key": "t_uint256",
        "label": "mapping(uint256 => bytes32)",
        "numberOfBytes": "32",
        "value": "t_bytes32"
      },
      "t_uint256": {
        "encoding": "inplace",
        "label": "uint256",
        "numberOfBytes": "32"
      },
      "t_uint32": {
        "encoding": "inplace",
        "label": "uint32",
        "numberOfBytes": "4"
      }
    }
  }
}